{
  "contractName": "Faucet",
  "abi": [
    {
      "inputs": [
        {
          "internalType": "address",
          "name": "",
          "type": "address"
        }
      ],
      "name": "funders",
      "outputs": [
        {
          "internalType": "bool",
          "name": "",
          "type": "bool"
        }
      ],
      "stateMutability": "view",
      "type": "function",
      "constant": true
    },
    {
      "inputs": [
        {
          "internalType": "uint256",
          "name": "",
          "type": "uint256"
        }
      ],
      "name": "lutFunders",
      "outputs": [
        {
          "internalType": "address",
          "name": "",
          "type": "address"
        }
      ],
      "stateMutability": "view",
      "type": "function",
      "constant": true
    },
    {
      "inputs": [],
      "name": "numOfFunders",
      "outputs": [
        {
          "internalType": "uint256",
          "name": "",
          "type": "uint256"
        }
      ],
      "stateMutability": "view",
      "type": "function",
      "constant": true
    },
    {
      "inputs": [],
      "name": "owner",
      "outputs": [
        {
          "internalType": "address",
          "name": "",
          "type": "address"
        }
      ],
      "stateMutability": "view",
      "type": "function",
      "constant": true
    },
    {
      "stateMutability": "payable",
      "type": "receive",
      "payable": true
    },
    {
      "inputs": [],
      "name": "emitLog",
      "outputs": [
        {
          "internalType": "bytes32",
          "name": "",
          "type": "bytes32"
        }
      ],
      "stateMutability": "pure",
      "type": "function",
      "constant": true
    },
    {
      "inputs": [],
      "name": "addFunds",
      "outputs": [],
      "stateMutability": "payable",
      "type": "function",
      "payable": true
    },
    {
      "inputs": [],
      "name": "test1",
      "outputs": [],
      "stateMutability": "nonpayable",
      "type": "function"
    },
    {
      "inputs": [],
      "name": "test2",
      "outputs": [],
      "stateMutability": "nonpayable",
      "type": "function"
    },
    {
      "inputs": [
        {
          "internalType": "uint256",
          "name": "withdrawAmount",
          "type": "uint256"
        }
      ],
      "name": "withdraw",
      "outputs": [],
      "stateMutability": "nonpayable",
      "type": "function"
    },
    {
      "inputs": [],
      "name": "getAllFunders",
      "outputs": [
        {
          "internalType": "address[]",
          "name": "",
          "type": "address[]"
        }
      ],
      "stateMutability": "view",
      "type": "function",
      "constant": true
    },
    {
      "inputs": [
        {
          "internalType": "uint8",
          "name": "index",
          "type": "uint8"
        }
      ],
      "name": "getFunderAtIndex",
      "outputs": [
        {
          "internalType": "address",
          "name": "",
          "type": "address"
        }
      ],
      "stateMutability": "view",
      "type": "function",
      "constant": true
    }
  ],
  "bytecode": "0x608060405234801561001057600080fd5b50336000806101000a81548173ffffffffffffffffffffffffffffffffffffffff021916908373ffffffffffffffffffffffffffffffffffffffff1602179055506103e8600181905550610c5e806100696000396000f3fe6080604052600436106100a05760003560e01c80636b59084d116100645780636b59084d146101a35780636fbbb55d146101ba5780638da5cb5b146101e5578063a26759cb14610210578063af7f2c9b1461021a578063f42c13bf14610245576100a7565b8063031b3677146100ac5780630a93cf33146100e95780631f8947ea146101265780632e1a7d4d1461016357806366e41cb71461018c576100a7565b366100a757005b600080fd5b3480156100b857600080fd5b506100d360048036038101906100ce9190610789565b610270565b6040516100e091906107d1565b60405180910390f35b3480156100f557600080fd5b50610110600480360381019061010b9190610825565b610290565b60405161011d9190610861565b60405180910390f35b34801561013257600080fd5b5061014d600480360381019061014891906108b2565b6102d0565b60405161015a9190610861565b60405180910390f35b34801561016f57600080fd5b5061018a600480360381019061018591906108b2565b610303565b005b34801561019857600080fd5b506101a161039a565b005b3480156101af57600080fd5b506101b861042a565b005b3480156101c657600080fd5b506101cf6104ba565b6040516101dc919061099d565b60405180910390f35b3480156101f157600080fd5b506101fa6105b4565b6040516102079190610861565b60405180910390f35b6102186105d8565b005b34801561022657600080fd5b5061022f6106f8565b60405161023c91906109ce565b60405180910390f35b34801561025157600080fd5b5061025a6106fe565b6040516102679190610a02565b60405180910390f35b60036020528060005260406000206000915054906101000a900460ff1681565b6000600460008360ff16815260200190815260200160002060009054906101000a900473ffffffffffffffffffffffffffffffffffffffff169050919050565b60046020528060005260406000206000915054906101000a900473ffffffffffffffffffffffffffffffffffffffff1681565b8067016345785d8a000081111561034f576040517f08c379a000000000000000000000000000000000000000000000000000000000815260040161034690610aa0565b60405180910390fd5b3373ffffffffffffffffffffffffffffffffffffffff166108fc839081150290604051600060405180830381858888f19350505050158015610395573d6000803e3d6000fd5b505050565b60008054906101000a900473ffffffffffffffffffffffffffffffffffffffff1673ffffffffffffffffffffffffffffffffffffffff163373ffffffffffffffffffffffffffffffffffffffff1614610428576040517f08c379a000000000000000000000000000000000000000000000000000000000815260040161041f90610b32565b60405180910390fd5b565b60008054906101000a900473ffffffffffffffffffffffffffffffffffffffff1673ffffffffffffffffffffffffffffffffffffffff163373ffffffffffffffffffffffffffffffffffffffff16146104b8576040517f08c379a00000000000000000000000000000000000000000000000000000000081526004016104af90610b32565b60405180910390fd5b565b6060600060025467ffffffffffffffff8111156104da576104d9610b52565b5b6040519080825280602002602001820160405280156105085781602001602082028036833780820191505090505b50905060005b6002548110156105ac576004600082815260200190815260200160002060009054906101000a900473ffffffffffffffffffffffffffffffffffffffff1682828151811061055f5761055e610b81565b5b602002602001019073ffffffffffffffffffffffffffffffffffffffff16908173ffffffffffffffffffffffffffffffffffffffff168152505080806105a490610bdf565b91505061050e565b508091505090565b60008054906101000a900473ffffffffffffffffffffffffffffffffffffffff1681565b6000339050600360008273ffffffffffffffffffffffffffffffffffffffff1673ffffffffffffffffffffffffffffffffffffffff16815260200190815260200160002060009054906101000a900460ff166106f55760006002600081548092919061064390610bdf565b9190505590506001600360008473ffffffffffffffffffffffffffffffffffffffff1673ffffffffffffffffffffffffffffffffffffffff16815260200190815260200160002060006101000a81548160ff021916908315150217905550816004600083815260200190815260200160002060006101000a81548173ffffffffffffffffffffffffffffffffffffffff021916908373ffffffffffffffffffffffffffffffffffffffff160217905550505b50565b60025481565b60007f48656c6c6f20576f726c64000000000000000000000000000000000000000000905090565b600080fd5b600073ffffffffffffffffffffffffffffffffffffffff82169050919050565b60006107568261072b565b9050919050565b6107668161074b565b811461077157600080fd5b50565b6000813590506107838161075d565b92915050565b60006020828403121561079f5761079e610726565b5b60006107ad84828501610774565b91505092915050565b60008115159050919050565b6107cb816107b6565b82525050565b60006020820190506107e660008301846107c2565b92915050565b600060ff82169050919050565b610802816107ec565b811461080d57600080fd5b50565b60008135905061081f816107f9565b92915050565b60006020828403121561083b5761083a610726565b5b600061084984828501610810565b91505092915050565b61085b8161074b565b82525050565b60006020820190506108766000830184610852565b92915050565b6000819050919050565b61088f8161087c565b811461089a57600080fd5b50565b6000813590506108ac81610886565b92915050565b6000602082840312156108c8576108c7610726565b5b60006108d68482850161089d565b91505092915050565b600081519050919050565b600082825260208201905092915050565b6000819050602082019050919050565b6109148161074b565b82525050565b6000610926838361090b565b60208301905092915050565b6000602082019050919050565b600061094a826108df565b61095481856108ea565b935061095f836108fb565b8060005b83811015610990578151610977888261091a565b975061098283610932565b925050600181019050610963565b5085935050505092915050565b600060208201905081810360008301526109b7818461093f565b905092915050565b6109c88161087c565b82525050565b60006020820190506109e360008301846109bf565b92915050565b6000819050919050565b6109fc816109e9565b82525050565b6000602082019050610a1760008301846109f3565b92915050565b600082825260208201905092915050565b7f43616e6e6f74207769746864726177206d6f7265207468616e20302e3120657460008201527f6865720000000000000000000000000000000000000000000000000000000000602082015250565b6000610a8a602383610a1d565b9150610a9582610a2e565b604082019050919050565b60006020820190508181036000830152610ab981610a7d565b9050919050565b7f4f6e6c79206f776e65722063616e2063616c6c20746869732066756e6374696f60008201527f6e00000000000000000000000000000000000000000000000000000000000000602082015250565b6000610b1c602183610a1d565b9150610b2782610ac0565b604082019050919050565b60006020820190508181036000830152610b4b81610b0f565b9050919050565b7f4e487b7100000000000000000000000000000000000000000000000000000000600052604160045260246000fd5b7f4e487b7100000000000000000000000000000000000000000000000000000000600052603260045260246000fd5b7f4e487b7100000000000000000000000000000000000000000000000000000000600052601160045260246000fd5b6000610bea8261087c565b91507fffffffffffffffffffffffffffffffffffffffffffffffffffffffffffffffff821415610c1d57610c1c610bb0565b5b60018201905091905056fea264697066735822122093c061c68799eac951caf4cdef0b8c0bf413e75d04ae8d3a97b75910d2c176d964736f6c63430008090033",
  "immutableReferences": {},
  "source": "// SPDX-License-Identifier: MIT\npragma solidity >=0.4.22 <0.9.0;\n\nimport \"./Owned.sol\";\nimport \"./Logger.sol\";\nimport \"./IFaucet.sol\";\n\ncontract Faucet is Owned, Logger, IFaucet {\n    // this is a special function \n    // that is called when you make a \n    // transaction (tx) that doesn't \n    // specify a function name to call\n\n    // External functions are a part of \n    // the interface, which means they \n    // can be called via contracts and \n    // other txs\n\n    // public -> can be accessible only\n    // within the smart contract\n\n    // internal -> can be accessible only\n    // within the smart contract and also\n    // derived smart contract.\n\n    uint public numOfFunders;\n\n    mapping(address => bool) public funders;\n    mapping(uint => address) public lutFunders;\n\n    \n\n    modifier limitWithdraw(uint withdrawAmount) {\n        require(\n            withdrawAmount <= 100000000000000000, \n            \"Cannot withdraw more than 0.1 ether\"\n        );\n        _;\n    }\n    \n\n    receive() external payable{}\n\n    function emitLog() public override pure returns(bytes32){\n        return \"Hello World\";\n    }\n\n    function addFunds() external payable {\n        address funder = msg.sender;\n        if(!funders[funder]){\n            uint index = numOfFunders++;\n            funders[funder] = true;\n            lutFunders[index] = funder;\n        }\n    }\n\n    function test1() external onlyOwner{\n\n    }\n    function test2() external onlyOwner{\n\n    }\n\n    function withdraw(uint withdrawAmount) external limitWithdraw(withdrawAmount) {\n        payable(msg.sender).transfer(withdrawAmount);\n    }\n\n    function getAllFunders() external view returns (address[] memory) {\n        address[] memory _funders = new address[](numOfFunders);\n        for (uint i = 0; i < numOfFunders; i++) {\n            _funders[i] = lutFunders[i];\n        }\n        return _funders;\n    }\n\n\n    function getFunderAtIndex(uint8 index) external view returns (address) {\n        return lutFunders[index];\n    }\n    \n}\n\n// const instance = await Faucet.deployed();\n// instance.addFunds({from: accounts[0], value: \"2000000000000000000\"});\n// instance.addFunds({from: accounts[1], value: \"2000000000000000000\"});\n\n// instance.withdraw(\"500000000000000000\", {from: accounts[1]});\n\n\n// instance.getFunderAtIndex(0);\n// instance.getAllFunders();",
  "sourcePath": "/Users/anthonylopez-guerra/EthBlockchain/faucet/contracts/FaucetContract.sol",
  "compiler": {
    "name": "solc",
    "version": "0.8.9+commit.e5eed63a.Emscripten.clang"
  },
  "schemaVersion": "3.4.4",
  "updatedAt": "2022-01-12T14:02:01.759Z",
  "networkType": "ethereum",
  "devdoc": {
    "kind": "dev",
    "methods": {},
    "version": 1
  },
  "userdoc": {
    "kind": "user",
    "methods": {},
    "version": 1
  }
}